{
  "contractName": "GameLibrary",
  "abi": [
    {
      "constant": true,
      "inputs": [
        {
          "name": "num_",
          "type": "uint256"
        }
      ],
      "name": "countBits",
      "outputs": [
        {
          "name": "",
          "type": "uint256"
        }
      ],
      "payable": false,
      "stateMutability": "pure",
      "type": "function"
    },
    {
      "constant": true,
      "inputs": [
        {
          "name": "boardSize_",
          "type": "uint256"
        },
        {
          "name": "x_",
          "type": "uint256"
        },
        {
          "name": "y_",
          "type": "uint256"
        }
      ],
      "name": "calculateMove",
      "outputs": [
        {
          "name": "",
          "type": "uint256"
        }
      ],
      "payable": false,
      "stateMutability": "pure",
      "type": "function"
    },
    {
      "constant": true,
      "inputs": [
        {
          "name": "ships_",
          "type": "bytes"
        },
        {
          "name": "boardSize_",
          "type": "uint256"
        },
        {
          "name": "board_",
          "type": "bytes"
        }
      ],
      "name": "calculateBoardHash",
      "outputs": [
        {
          "name": "",
          "type": "bytes32"
        }
      ],
      "payable": false,
      "stateMutability": "pure",
      "type": "function"
    }
  ],
  "bytecode": "0x6105ad610030600b82828239805160001a6073146000811461002057610022565bfe5b5030600052607381538281f300730000000000000000000000000000000000000000301460806040526004361061006e576000357c0100000000000000000000000000000000000000000000000000000000900463ffffffff1680632cc46dac1461007357806359a44482146100a7578063fe753e7a146100ef575b600080fd5b610091600480360381019080803590602001909291905050506101b7565b6040518082815260200191505060405180910390f35b6100d96004803603810190808035906020019092919080359060200190929190803590602001909291905050506101e5565b6040518082815260200191505060405180910390f35b610199600480360381019080803590602001908201803590602001908080601f016020809104026020016040519081016040528093929190818152602001838380828437820191505050505050919291929080359060200190929190803590602001908201803590602001908080601f01602080910402602001604051908101604052809392919081815260200183838082843782019150505050505091929192905050506101f8565b60405180826000191660001916815260200191505060405180910390f35b6000805b82600010156101dc5760018316810190506001839060020a900492506101bb565b80915050919050565b6000818484020160020a90509392505050565b6000806000806000806000806000806000809950600098505b888e51111561050b578860030297508b8881518110151561022e57fe5b9060200101517f010000000000000000000000000000000000000000000000000000000000000090047f0100000000000000000000000000000000000000000000000000000000000000027f0100000000000000000000000000000000000000000000000000000000000000900496508b600189018151811015156102af57fe5b9060200101517f010000000000000000000000000000000000000000000000000000000000000090047f0100000000000000000000000000000000000000000000000000000000000000027f0100000000000000000000000000000000000000000000000000000000000000900495508b6002890181518110151561033057fe5b9060200101517f010000000000000000000000000000000000000000000000000000000000000090047f0100000000000000000000000000000000000000000000000000000000000000027f0100000000000000000000000000000000000000000000000000000000000000900460001094508d898151811015156103b157fe5b9060200101517f010000000000000000000000000000000000000000000000000000000000000090047f0100000000000000000000000000000000000000000000000000000000000000027f010000000000000000000000000000000000000000000000000000000000000090049350866000111580156104315750868d115b151561043c57600080fd5b8560001115801561044c5750858d115b151561045757600080fd5b83856104635786610465565b875b018d1015151561047457600080fd5b84610480576001610482565b835b87019250846104915783610494565b60015b860191505b86831180156104a757508582115b15610500576104b78d88886101e5565b905060008a82161415156104ca57600080fd5b808a179950846104db5760006104de565b60015b60ff1687019650846104f15760016104f4565b60005b60ff1686019550610499565b600189019850610211565b8b6040518082805190602001908083835b602083101515610541578051825260208201915060208101905060208303925061051c565b6001836020036101000a03801982511681845116808217855250505050505090500191505060405180910390209a505050505050505050505093925050505600a165627a7a723058207295706ea9f011b53566f63a2eed09fdc3eaded3e0d7a775b66a81b5b889f3990029",
  "source": "pragma solidity ^0.4.23;\n\nlibrary GameLibrary {\n  //counting the given number of the game:\n    function countBits(uint num_) public pure returns (uint) {\n        uint c;\n\n        for (c; 0 < num_; num_ >>= 1) {\n            c += (num_ & 1);\n        }\n\n        return c;\n    }\n\n\n  //calculating the move coordinates\n    function calculateMove(uint boardSize_, uint x_, uint y_) public pure returns (uint) {\n        return 2 ** (x_ * boardSize_ + y_);\n    }\n\n\n  //board hash calculation\n  //return the SHA3 hash\n    function calculateBoardHash(bytes ships_, uint boardSize_, bytes board_) public pure returns (bytes32) {\n        uint marked = 0;\n\n        // check that board setup is valid\n        for (uint s = 0; ships_.length > s; s += 1) {\n            // ship info\n            uint index = 3 * s;\n            uint x = uint(board_[index]);\n            uint y = uint(board_[index + 1]);\n            bool isVertical = (0 < uint(board_[index + 2]));\n            uint shipSize = uint(ships_[s]);\n            \n            // check validity of ship position\n            require(0 <= x && boardSize_ > x);\n            require(0 <= y && boardSize_ > y);\n            require(boardSize_ >= ((isVertical ? x : y) + shipSize));\n            \n            // check that ship does not conflict with other ships on the board\n            uint endX = x + (isVertical ? shipSize : 1);\n            uint endY = y + (isVertical ? 1 : shipSize);\n            while (endX > x && endY > y) {\n                uint pos = calculateMove(boardSize_, x, y);\n            \n                // ensure no ship already sits on this position\n                require((pos & marked) == 0);\n                \n                // update position bit\n                marked = marked | pos;\n\n                x += (isVertical ? 1 : 0);\n                y += (isVertical ? 0 : 1);\n            }\n        }\n\n        return keccak256(board_);\n    }\n\n}\n",
  "sourcePath": "/Users/austyn/Dev/EthBattleShip/contracts/GameLibrary.sol",
  "compiler": {
    "name": "solc",
    "version": "0.4.24+commit.e67f0147.Emscripten.clang"
  },
  "schemaVersion": "2.0.1",
  "updatedAt": "2018-08-28T10:33:43.342Z"
}